{
  "contractName": "Counter",
  "abi": [
    {
      "inputs": [
        {
          "internalType": "uint256",
          "name": "x",
          "type": "uint256"
        }
      ],
      "stateMutability": "nonpayable",
      "type": "constructor"
    },
    {
      "inputs": [],
      "name": "counter",
      "outputs": [
        {
          "internalType": "uint256",
          "name": "",
          "type": "uint256"
        }
      ],
      "stateMutability": "view",
      "type": "function",
      "constant": true
    },
    {
      "inputs": [],
      "name": "count",
      "outputs": [],
      "stateMutability": "nonpayable",
      "type": "function"
    },
    {
      "inputs": [
        {
          "internalType": "uint256",
          "name": "x",
          "type": "uint256"
        }
      ],
      "name": "add",
      "outputs": [
        {
          "internalType": "uint256",
          "name": "",
          "type": "uint256"
        }
      ],
      "stateMutability": "nonpayable",
      "type": "function"
    }
  ],
  "bytecode": "0x608060405234801561001057600080fd5b506040516102bc3803806102bc8339818101604052810190610032919061007a565b80600081905550506100a7565b600080fd5b6000819050919050565b61005781610044565b811461006257600080fd5b50565b6000815190506100748161004e565b92915050565b6000602082840312156100905761008f61003f565b5b600061009e84828501610065565b91505092915050565b610206806100b66000396000f3fe608060405234801561001057600080fd5b50600436106100415760003560e01c806306661abd146100465780631003e2d21461005057806361bc221a14610080575b600080fd5b61004e61009e565b005b61006a60048036038101906100659190610116565b6100b5565b6040516100779190610152565b60405180910390f35b6100886100d5565b6040516100959190610152565b60405180910390f35b60016000546100ad919061019c565b600081905550565b6000816000546100c5919061019c565b6000819055506000549050919050565b60005481565b600080fd5b6000819050919050565b6100f3816100e0565b81146100fe57600080fd5b50565b600081359050610110816100ea565b92915050565b60006020828403121561012c5761012b6100db565b5b600061013a84828501610101565b91505092915050565b61014c816100e0565b82525050565b60006020820190506101676000830184610143565b92915050565b7f4e487b7100000000000000000000000000000000000000000000000000000000600052601160045260246000fd5b60006101a7826100e0565b91506101b2836100e0565b92508282019050808211156101ca576101c961016d565b5b9291505056fea26469706673582212209f54ba4d1c5baa61bd959e5ff2f95a5c70edf2031778a83a67c6a98f6202a71c64736f6c63430008130033",
  "immutableReferences": {},
  "source": "/// SPDX-License-Identifier: MIT\r\npragma solidity ^0.8.0;\r\n\r\ncontract Counter {\r\n\r\n    uint public counter;\r\n\r\n    // counter0\r\n    constructor(uint x) {\r\n        counter = x;\r\n    }\r\n\r\n    function count() public {\r\n        counter = counter + 1;\r\n    }\r\n\r\n    function add(uint x) public returns(uint) {\r\n        counter = counter + x;\r\n        return counter;\r\n    }\r\n\r\n}",
  "sourcePath": "D:\\code\\blockchain\\upchaincamp2\\w1-2\\w1-2truffle\\contracts\\Counter.sol",
  "compiler": {
    "name": "solc",
    "version": "0.8.19+commit.7dd6d404.Emscripten.clang"
  },
  "schemaVersion": "3.4.13",
  "updatedAt": "2023-03-14T03:50:18.583Z",
  "networkType": "ethereum",
  "devdoc": {
    "kind": "dev",
    "methods": {},
    "version": 1
  },
  "userdoc": {
    "kind": "user",
    "methods": {},
    "version": 1
  }
}